:020000040800F2
:10000000000002208941000815410008174100083E
:10001000194100081B4100081D41000800000000B4
:100020000000000000000000000000001F41000868
:10003000214100080000000023410008254100087C
:10004000D9410008D9410008D9410008D941000828
:10005000D9410008D9410008D9410008D941000818
:10006000D9410008D9410008D9410008D941000808
:10007000D9410008D9410008D9410008D9410008F8
:10008000D9410008D9410008D9410008000000000A
:10009000000000000000000000000000D94100083E
:1000A000D94100082D410008D9410008D941000874
:1000B000D9410008D9410008D9410008D9410008B8
:1000C000D9410008D9410008D9410008D9410008A8
:1000D000D9410008D9410008D941000800000000BA
:1000E000D9410008D9410008D941000800000000AA
:1000F000000000000000000000000000D9410008DE
:1001000000000000D9410008D9410008D941000889
:1001100000000000000000000000000000000000DF
:10012000D9410008D9410008D9410008D941000847
:10013000D94100080000000000000000000000009D
:10014000000000000000000000000000D94100088D
:10015000D9410008D9410008D9410008D941000817
:10016000D9410008D941000800000000000000004B
:10017000000000000000000000000000000000007F
:1001800000000000D941000800000000000000004D
:08019000D9410008D941000823
:1001980010B5054C237833B9044B13B10448AFF3B9
:1001A80000800123237010BDB4000020000000006F
:1001B8003442000808B5034B1BB103490348AFF3A9
:1001C800008008BD00000000B8000020344200088C
:1001D80081F0004102E000BF83F0004330B54FEAF0
:1001E80041044FEA430594EA050F08BF90EA020F5D
:1001F8001FBF54EA000C55EA020C7FEA645C7FEAF0
:10020800655C00F0E2804FEA5454D4EB5555B8BF12
:100218006D420CDD2C4480EA020281EA030382EA83
:10022800000083EA010180EA020281EA0303362D15
:1002380088BF30BD11F0004F4FEA01314FF4801CE8
:100248004CEA113102D0404261EB410113F0004FFA
:100258004FEA03334CEA133302D0524263EB4303B1
:1002680094EA050F00F0A780A4F10104D5F1200E4F
:100278000DDB02FA0EFC22FA05F2801841F10001AA
:1002880003FA0EF2801843FA05F359410EE0A5F17E
:1002980020050EF1200E012A03FA0EFC28BF4CF0AF
:1002A800020C43FA05F3C01851EBE37101F0004565
:1002B80007D54FF0000EDCF1000C7EEB00006EEB72
:1002C8000101B1F5801F1BD3B1F5001F0CD34908FC
:1002D8005FEA30004FEA3C0C04F101044FEA445253
:1002E80012F5800F80F09A80BCF1004F08BF5FEADA
:1002F800500C50F1000041EB045141EA050130BDBA
:100308005FEA4C0C404141EB010111F4801FA4F15C
:100318000104E9D191F0000F04BF01460020B1FAB1
:1003280081F308BF2033A3F10B03B3F120020CDAE9
:100338000C3208DD02F1140CC2F10C0201FA0CF0C7
:1003480021FA02F10CE002F11402D8BFC2F1200C2C
:1003580001FA02F120FA0CFCDCBF41EA0C019040E2
:10036800E41AA2BF01EB0451294330BD6FEA04042B
:100378001F3C1CDA0C340EDC04F11404C4F1200216
:1003880020FA04F001FA02F340EA030021FA04F328
:1003980045EA030130BDC4F10C04C4F1200220FA7F
:1003A80002F001FA04F340EA0300294630BD21FABD
:1003B80004F0294630BD94F0000F83F4801306BF83
:1003C80081F480110134013D4EE77FEA645C18BF77
:1003D8007FEA655C29D094EA050F08BF90EA020F0E
:1003E80005D054EA000C04BF1946104630BD91EA06
:1003F800030F1EBF0021002030BD5FEA545C05D109
:100408004000494128BF41F0004130BD14F5800447
:100418003CBF01F5801130BD01F0004545F0FE41BB
:1004280041F470014FF0000030BD7FEA645C1ABFF0
:10043800194610467FEA655C1CBF0B46024650EA27
:10044800013406BF52EA033591EA030F41F4002153
:1004580030BD00BF90F0000F04BF0021704730B5D9
:100468004FF4806404F132044FF000054FF00001AE
:1004780050E700BF90F0000F04BF0021704730B56F
:100488004FF4806404F1320410F0004548BF404244
:100498004FF000013EE700BF42004FEAE2014FEA99
:1004A80031014FEA02701FBF12F07F4393F07F4F74
:1004B80081F06051704732F07F4208BF704793F077
:1004C8007F4F04BF41F40021704730B54FF460748A
:1004D80001F0004521F000411CE700BF50EA01028D
:1004E80008BF704730B54FF000050AE050EA010236
:1004F80008BF704730B511F0004502D5404261EBA6
:1005080041014FF4806404F132045FEA915C3FF4E6
:10051800D8AE4FF003025FEADC0C18BF03325FEA83
:10052800DC0C18BF033202EBDC02C2F1200300FA34
:1005380003FC20FA02F001FA03FE40EA0E0021FA59
:1005480002F11444BDE600BF70B54FF0FF0C4CF447
:10055800E06C1CEA11541DBF1CEA135594EA0C0FF9
:1005680095EA0C0F00F0DEF82C4481EA030621EA34
:100578004C5123EA4C5350EA013518BF52EA03356F
:1005880041F4801143F4801338D0A0FB02CE4FF021
:100598000005E1FB02E506F00042E0FB03E54FF051
:1005A8000006E1FB03569CF0000F18BF4EF0010E49
:1005B800A4F1FF04B6F5007F64F5407404D25FEA45
:1005C8004E0E6D4146EB060642EAC62141EA5551F8
:1005D8004FEAC52040EA5E504FEACE2EB4F1FD0C3A
:1005E80088BFBCF5E06F1ED8BEF1004F08BF5FEAB8
:1005F800500E50F1000041EB045170BD06F000466A
:1006080046EA010140EA020081EA0301B4EB5C0416
:10061800C2BFD4EB0C0541EA045170BD41F480110E
:100628004FF0000E013C00F3AB8014F1360FDEBF33
:10063800002001F0004170BDC4F10004203C35DA0F
:100648000C341BDC04F11404C4F1200500FA05F392
:1006580020FA04F001FA05F240EA020001F0004233
:1006680021F0004110EBD37021FA04F642EB0601A9
:100678005EEA430E08BF20EAD37070BDC4F10C04D3
:10068800C4F1200500FA04F320FA05F001FA04F297
:1006980040EA020001F0004110EBD37041F1000183
:1006A8005EEA430E08BF20EAD37070BDC4F120058E
:1006B80000FA05F24EEA020E20FA04F301FA05F2F6
:1006C80043EA020321FA04F001F0004121FA04F29E
:1006D80020EA020000EBD3705EEA430E08BF20EA6E
:1006E800D37070BD94F0000F0FD101F000464000A8
:1006F80041EB010111F4801F08BF013CF7D041EA2A
:10070800060195F0000F18BF704703F0004652002D
:1007180043EB030313F4801F08BF013DF7D043EAFE
:100728000603704794EA0C0F0CEA135518BF95EAB4
:100738000C0F0CD050EA410618BF52EA4306D1D13B
:1007480081EA030101F000414FF0000070BD50EA5A
:10075800410606BF1046194652EA430619D094EAE4
:100768000C0F02D150EA013613D195EA0C0F05D1CE
:1007780052EA03361CBF104619460AD181EA030122
:1007880001F0004141F0FE4141F470014FF00000DA
:1007980070BD41F0FE4141F4780170BD70B54FF075
:1007A800FF0C4CF4E06C1CEA11541DBF1CEA1355F5
:1007B80094EA0C0F95EA0C0F00F0A7F8A4EB0504D7
:1007C80081EA030E52EA03354FEA013100F08880CE
:1007D8004FEA03334FF0805545EA131343EA126397
:1007E8004FEA022245EA111545EA10654FEA00264C
:1007F8000EF000419D4208BF964244F1FD0404F505
:10080800407402D25B084FEA3202B61A65EB030560
:100818005B084FEA32024FF480104FF4002CB6EB1D
:10082800020E75EB030E22BFB61A754640EA0C009D
:100838005B084FEA3202B6EB020E75EB030E22BFDD
:10084800B61A754640EA5C005B084FEA3202B6EB1E
:10085800020E75EB030E22BFB61A754640EA9C00DD
:100868005B084FEA3202B6EB020E75EB030E22BFAD
:10087800B61A754640EADC0055EA060E18D04FEA6B
:10088800051545EA16754FEA06164FEAC30343EA0B
:1008980052734FEAC2025FEA1C1CC0D111F4801FD8
:1008A8000BD141EA00014FF000004FF0004CB6E7D1
:1008B80011F4801F04BF01430020B4F1FD0C88BF70
:1008C800BCF5E06F3FF6AFAEB5EB030C04BFB6EB7B
:1008D800020C5FEA500C50F1000041EB045170BD6E
:1008E8000EF0004E4EEA113114EB5C04C2BFD4EB9B
:1008F8000C0541EA045170BD41F480114FF0000E1F
:10090800013C90E645EA060E8DE60CEA135594EA9A
:100918000C0F08BF95EA0C0F3FF43BAF94EA0C0F9D
:100928000AD150EA01347FF434AF95EA0C0F7FF412
:1009380025AF104619462CE795EA0C0F06D152EA66
:1009480003353FF4FDAE1046194622E750EA41064A
:1009580018BF52EA43067FF4C5AE50EA41047FF45B
:100968000DAF52EA43057FF4EBAE12E74FEA4102BE
:10097800B2F1E04324BFB3F5001CDCF1FE5C0DD9F5
:1009880001F0004C4FEAC0024CEA5070B2F1004F3F
:1009980040EB830008BF20F00100704711F0804F42
:1009A80021D113F13872BCBF01F00040704741F407
:1009B80080114FEA5252C2F11802C2F1200C10FA0B
:1009C8000CF320FA02F018BF40F001004FEAC123EF
:1009D8004FEAD32303FA0CFC40EA0C0023FA02F393
:1009E8004FEA4303CCE77FEA625307D150EA013369
:1009F8001EBF4FF0FE4040F44000704701F0004039
:100A080040F0FE4040F40000704700BF53B94AB9B7
:100A1800002908BF00281CBF4FF0FF314FF0FF30FE
:100A280000F072B9ADF1080C6DE904CE00F006F8DB
:100A3800DDF804E0DDE9022304B070472DE9F04752
:100A4800089E04468846002B4BD18A42154667D932
:100A5800B2FA82F24AB1C2F1200701FA02F320FA8F
:100A680007F7954047EA030894404FEA154E230CD0
:100A7800B8FBFEF71FFA85FC0EFB178843EA08430C
:100A880007FB0CF1994209D9EB1807F1FF3080F008
:100A98001B81994240F21881023F2B445B1AA4B291
:100AA800B3FBFEF00EFB103344EA034400FB0CFCDE
:100AB800A44509D92C1900F1FF3380F00781A4451A
:100AC80040F2048102382C4440EA0740A4EB0C04AD
:100AD80000271EB1D4400023C6E900433946BDE8CB
:100AE800F0878B4209D9002E00F0EB800027C6E979
:100AF800000138463946BDE8F087B3FA83F7002F7E
:100B080047D18B4202D3824200F2FA80841A61EB09
:100B1800030301209846002EE0D0C6E90048DDE72F
:100B280002B9FFDEB2FA82F2002A40F08F80491B38
:100B38004FEA154E1FFA85F80127B1FBFEFC230C7E
:100B48000EFB1C1143EA014308FB0CF1994207D93B
:100B5800EB180CF1FF3002D2994200F2CD808446A6
:100B6800591AA3B2B1FBFEF00EFB101443EA044479
:100B780008FB00F8A04507D92C1900F1FF3302D271
:100B8800A04500F2B6801846A4EB080440EA0C40E1
:100B98009FE7C7F1200CBB4022FA0CFE4EEA030E79
:100BA80001FA07F420FA0CF521FA0CF34FEA1E4873
:100BB8002543B3FBF8F92C0C08FB19331FFA8EFAFE
:100BC80044EA034309FB0AF49C4202FA07F200FADA
:100BD80007F10BD91EEB030309F1FF3080F0878082
:100BE8009C4240F28480A9F1020973441B1BADB2F8
:100BF800B3FBF8F008FB103345EA034400FB0AFA9C
:100C0800A24508D91EEB040400F1FF336BD2A245BC
:100C180069D90238744440EA0940A0FB0289A4EB70
:100C28000A044C45C2464B4654D351D0002E69D0D5
:100C3800B1EB0A0564EB030404FA0CFCFD40FC402C
:100C48004CEA0505C6E90054002747E7C2F120032E
:100C580020FA03F7954001FA02F021FA03F34FEA6C
:100C6800154E3843010CB3FBFEF71FFA85F80EFB4F
:100C7800173341EA034107FB08F38B4204FA02F4F5
:100C880007D9691807F1FF3C2FD28B422DD9023FB3
:100C98002944CB1A81B2B3FBFEF00EFB103341EAB4
:100CA800034100FB08F38B4207D9691800F1FF3CA8
:100CB80017D28B4215D902382944C91A40EA074786
:100CC8003BE73746304609E70746E7E61846FBE6BE
:100CD8004145ABD2B8EB020A69EB0E020138134664
:100CE800A4E76046E9E7184695E76746D1E78146F5
:100CF8007CE702382C4447E7ACF1020C2B442FE781
:100D0800384608E73746E9E6704700BF10B504469D
:100D18000E4B18784FF47A73B3FBF0F30C4A106853
:100D2800B0FBF3F000F0AAF868B90F2C01D9012044
:100D38000AE0002221464FF0FF3000F05DF8034B37
:100D48005C60002000E0012010BD00BF0000002012
:100D5800B000002008B50B4B1A6842F400721A6004
:100D68001A6842F480621A601A6842F480721A6043
:100D7800032000F02FF80020FFF7C8FF03F084F8E5
:100D8800002008BD003C0240034A1168034B1B7851
:100D98000B441360704700BF0405002000000020CA
:100DA800014B1868704700BF0405002038B5044699
:100DB800FFF7F6FF0546B4F1FF3F02D0044B1B785E
:100DC8001C44FFF7EDFF401BA042FAD338BD00BF1B
:100DD80000000020074AD36823F4E0631B041B0CBF
:100DE800000200F4E060184340F0BF6040F40030B7
:100DF800D060704700ED00E030B4174BDB68C3F3F8
:100E08000223C3F10704042C28BF04241D1D062D4A
:100E180018D9033B4FF0FF3505FA04F421EA040121
:100E2800994005FA03F322EA0303194300280BDB70
:100E38000901C9B200F1604000F5614080F8001373
:100E480030BC70470023E5E700F00F000901C9B284
:100E5800024B1954F4E700BF00ED00E014ED00E088
:100E6800002807DB00F01F02400901239340024AD3
:100E780042F82030704700BF00E100E00138B0F1CF
:100E8800807F0AD2064B5860064AF02182F8231068
:100E98000020986007221A6070470120704700BF41
:100EA80010E000E000ED00E010B409490C6924F4FA
:100EB80040740C610C6944F440740C610C6944F092
:100EC80001040C61026043605DF8044B704700BF89
:100ED800003C0240074B1A6922F440721A611A69F1
:100EE80042F400721A611A6942F001021A61016043
:100EF800704700BF003C0240074B1A6922F4407259
:100F08001A611A6942F480721A611A6942F0010280
:100F18001A610180704700BF003C0240064B1A6905
:100F280022F440721A611A691A611A6942F00102C0
:100F38001A610170704700BF003C0240274BDB6814
:100F480013F0100F07D0264AD36943F01003D3617A
:100F5800224B1022DA60214BDB6813F0200F07D0F8
:100F68001F4AD36943F00803D3611C4B2022DA607F
:100F78001A4BDB6813F0400F07D0194AD36943F0C6
:100F88000403D361154B4022DA60144BDB6813F07D
:100F9800800F07D0124AD36943F00203D3610F4B85
:100FA8008022DA600D4BDB6813F4807F08D00C4A8E
:100FB800D36943F00103D361084B4FF48072DA60C0
:100FC800064BDB6813F0020F07D0054AD36943F0DC
:100FD8002003D361014B0222DA607047003C0240D3
:100FE80008050020094B1B69002B01DB0020704716
:100FF800064B074A5A6002F188325A601B69002B77
:1010080001DB002070470120704700BF003C024010
:1010180023016745034A136943F000431361002025
:10102800704700BF003C024038B50446154B00220B
:10103800DA61FFF7B5FE0546134BDB6813F4803F12
:101048000AD0B4F1FF3FF7D0CCB1FFF7A9FE401B9F
:10105800A042F1D903200DE00B4BDB6813F0010F20
:1010680002D0094B0122DA60074BDB6813F4F97FE1
:1010780001D1002038BDFFF761FF0120FAE7032006
:10108800F8E700BF08050020003C0240F8B51D4CF9
:10109800247E012C34D01F4616460D460446194BB3
:1010A80001221A764CF25030FFF7BEFF014698B97C
:1010B800BCB1012C1AD0022C1DD032463B46284622
:1010C800FFF7F2FE4CF25030FFF7AEFF01460E4A32
:1010D800136923F0010313610A4B00221A760846AC
:1010E800F8BDF1B22846FFF719FFEBE7B1B2284681
:1010F800FFF702FFE6E731462846FFF7EBFEE1E798
:101108000221ECE708050020003C0240074B1A6961
:1011180022F440721A611A6942F004021A611A69CB
:1011280042EA002040F4803018617047003C0240D9
:1011380010B449B1012921D0022902D04FF44074DA
:1011480003E04FF4007400E000240E4B196921F409
:10115800407119611A6922431A611A6922F0F8026A
:101168001A611A6942EAC00040F0020018611A695F
:1011780042F480321A615DF8044B70474FF4807472
:10118800E3E700BF003C0240164B1B6813F4007FE6
:1011980010D0144B1A6822F400721A601A6842F4CC
:1011A80000621A601A6822F400621A601A6842F42F
:1011B80000721A600B4B1B6813F4806F10D0094B38
:1011C8001A6822F480621A601A6842F480521A601F
:1011D8001A6822F480521A601A6842F480621A600F
:1011E800704700BF003C0240F8B5224B1B7E012B24
:1011F8003ED00E4604461F4B01221A764CF2503060
:10120800FFF712FF074670BB4FF0FF3333602368C8
:10121800012B16D0A568E368A2681344AB4220D915
:10122800217C2846FFF784FF4CF25030FFF7FCFE84
:10123800114A136923F0FA031361074680B901358F
:10124800E9E76168207CFFF761FF4CF25030FFF757
:10125800EBFE0746084A136923F00403136100E014
:101268003560FFF791FF034B00221A763846F8BD28
:101278000227FBE708050020003C024000230F2B53
:1012880000F2C580F0B482B039E0042200E0002208
:10129800B2403A4302345E4E46F824205D4A146850
:1012A800EA4302EA04064F6817F4803F01D045EA92
:1012B8000406584C2660646802EA04064F6817F46E
:1012C800003F01D045EA0406524C6660A46802EA71
:1012D80004064F6817F4801F01D045EA04064D4CF8
:1012E800A660E46822404E6816F4001F01D045EA63
:1012F8000402484CE26001330F2B00F28580012282
:101308009A400C6804EA0205AA42F4D14C68022CFF
:1013180001D0122C10D1DE08083650F826C003F090
:101328000704A7000F24BC402CEA040C0C69BC403D
:1013380044EA0C0440F8264004685F000326BE40D7
:10134800F64306EA040C4C6804F00304BC4044EA83
:101358000C0404604C6804F1FF3CBCF1010F03D994
:10136800112C01D0122C10D1846806EA040CCC6828
:10137800BC4044EA0C048460446824EA02024C68D5
:10138800C4F300149C4014434460C26816408A6841
:10139800BA403243C2604A6812F0805FABD0002284
:1013A80001921D4A546C44F480445464526C02F413
:1013B80080420192019A9C08A61C154A52F8267090
:1013C80003F0030296000F22B24027EA0207134AED
:1013D80090423FF45CAF02F5806290420ED002F575
:1013E800806290420CD002F5806290420AD002F5E9
:1013F800806290423FF449AF072249E7012247E75C
:10140800022245E7032243E702B0F0BC7047704769
:1014180000380140003C0140003802400000024012
:1014280012B90904816170478161704703685A697C
:1014380012F4806F11D06FF480625A610023036345
:10144800202280F83D2080F83E30026C42F00402F1
:10145800026480F83C300120704700207047F8B5DE
:1014680006460C4617461D4622E0FFF799FC069BE8
:10147800C01AA84200D8DDB900233363202286F8B9
:101488003D2086F83E30326C42F02002326486F805
:101498003C3001201AE033685B6924EA03039BB2FD
:1014A800B3FA83F35B099F420FD1B5F1FF3FDCD15B
:1014B800C4F30743012BEED033689B6924EA030386
:1014C8009BB2B3FA83F35B09EDE70020F8BDF8B5EA
:1014D80004460D4616461F463CE01A6842F4007260
:1014E8001A6023686FF480625A6100232363202204
:1014F80084F83D2084F83E30226C42F004022264D5
:1015080084F83C30012033E0FFF74AFCC01BB042AE
:1015180000D8FEB900232363202284F83D2084F8F4
:101528003E30226C42F02002226484F83C300120D4
:101538001EE023685B6925EA03039BB2003318BFEA
:101548000123A3B123685A6912F4806FC5D1B6F19B
:10155800FF3FD9D1C5F30743012BEAD023689B6924
:1015680025EA03039BB2003318BF0123E9E70020F3
:10157800F8BD0000F0B583B004460F4615461E4678
:10158800C36A082B0DD0012B0BD013F5803F08D070
:10159800036B122B0AD10268136843F4807313603B
:1015A80004E02268136843F48073136000962B46A6
:1015B80000224FF001112046FFF751FF18BB2369A5
:1015C800B3F5804F0DD1236807F0FE071F6133463E
:1015D8002A4610492046FFF77AFF0346A0B10123A7
:1015E80012E0FB11226803F0060343F0F0031361D5
:1015F80033462A4608492046FFF769FF38B9236869
:10160800FFB21F61E3E70123184603B0F0BD0123D1
:10161800FAE700BF020001000800010070B50446A7
:101628000D46164623685B6913F0800F1CD12046CF
:10163800FFF7FCFED0B9B5F1FF3FF3D0FFF7B0FBE1
:10164800801BA84201D8002DECD10023236320225F
:1016580084F83D2084F83E30226C42F02002226457
:1016680084F83C30012000E0002070BD0120FCE738
:1016780070B504460D46164623685B6913F0040FDF
:101688001CD12046FFF7D2FED0B9B5F1FF3FF3D009
:10169800FFF786FB801BA84201D8002DECD1002360
:1016A8002363202284F83D2084F83E30226C42F0E7
:1016B8002002226484F83C30012000E0002070BD44
:1016C8000120FCE7002800F0BE80F8B5044690F839
:1016D8003D30002B6BD0242384F83D3022681368FA
:1016E80023F00103136000F023FD6268584B9A420F
:1016F80062D8584B98428CBF00230123002B40F03E
:10170800A480554BA3FB00239B0C21684A6822F058
:101718003F021A434A6025682A6A22F03F02666837
:101728004B498E424ED8013313432B622568E96931
:1017380021F44F4121F0FF016368454A93424BD899
:1017480001385B00B0FBF3F30133C3F30B03042B45
:1017580038BF04230B43EB6121680B6823F0C003F7
:10176800E269206A024313430B6021688B6823F403
:10177800034323F0FF032269E068024313438B60AD
:101788002168CB6823F0FF036269A0690243134311
:10179800CB602268136843F00103136000202064C3
:1017A800202384F83D30206384F83E00F8BD80F89B
:1017B8003C3002F089FB8EE7284B98428CBF00230F
:1017C80001239BE74FF4967101FB03F32449A1FB26
:1017D80003139B090133A7E7A268BAB9461E03EBB6
:1017E8004307B6FBF7F60136C6F30B06B6FA86F6DC
:1017F800760936BBC2B9013803EB4303B0FBF3F3F8
:101808000133C3F30B0242F40043A3E7461E03EB84
:10181800830707EB8707B6FBF7F60136C6F30B0617
:10182800B6FA86F67609E4E7013803EB830303EB9F
:101838008303B0FBF3F20132C2F30B0242F44043DC
:1018480088E7012386E7012070470120AEE700BF43
:10185800A08601007F841E0083DE1B43FF083D0035
:10186800D34D62102DE9F04184B004460E469046EF
:101878001F46FFF795FA94F83D30DBB2202B04D0D1
:101888000226304604B0BDE8F081054600901923D1
:1018980001224F492046FFF7E2FD002840F09180E1
:1018A80094F83C30012B00F08E80012384F83C3002
:1018B80023681A6812F0010F03D11A6842F0010276
:1018C8001A602268136823F400631360212384F8E4
:1018D8003D30102384F83E3000232364C4F824806C
:1018E8006785638D23853B4BE3622B460A9A314615
:1018F8002046FFF73FFE0646002866D100230393E3
:1019080023685A6903929B690393039B12E0236C33
:10191800042B01D00126B4E72268136843F400734E
:1019280013600126ADE72A460A992046FFF7A0FE74
:1019380000282CD1238D002B35D02A460A99204621
:10194800FFF76CFE0028E2D1626A236812781A61F8
:10195800616A4B1C6362638D013B9BB26385238D77
:10196800013B9BB223852268506910F0040FDAD03E
:10197800002BD8D04B781361636A01336362638D9F
:10198800013B9BB26385238D013B2385CBE7236C09
:10199800042B01D0012674E72268136843F400730E
:1019A800136001266DE72268136843F4007313601F
:1019B800202384F83D30002384F83E3084F83C30FE
:1019C8005FE702265DE702265BE7012659E700BFCD
:1019D800020010000000FFFF2DE9F04385B0044627
:1019E800884691461D46FFF7DBF994F83D30DBB297
:1019F800202B04D00223184605B0BDE8F083064624
:101A080000901923012254492046FFF728FD002899
:101A180040F0978094F83C30012B00F0948001232B
:101A280084F83C3023681A6812F0010F03D11A6851
:101A380042F001021A602268136823F400631360FD
:101A4800242384F83D3000232364A3F58033E36224
:101A5800012734E0A02384F83D3023685A69C2F393
:101A680040025969C1F3802194F83D30DBB2A02BC4
:101A780009D042B939B9FFF793F9801BA842E9D8D0
:101A8800002DEAD1E6E7202384F83D3023685A691F
:101A980012F0020F31D11A6842F400721A602368FA
:101AA8006FF480625A610096192301222A49204660
:101AB800FFF7D5FC00284CD101374F4539D22268B1
:101AC800136843F48073136000962B4600224FF08E
:101AD80001112046FFF7C3FC002836D1236808F01F
:101AE800FE021A61FFF75CF9064623685A69C2F3D9
:101AF80040025969C1F38021B6E71A6842F40072BE
:101B08001A600023039323685A6903929B6903931D
:101B1800039B0096192301220F492046FFF79FFCDB
:101B28000346A0B9202284F83D20002284F83C20F6
:101B380061E7202384F83D30002384F83C300123FA
:101B480059E7022357E7022355E7012353E7012307
:101B580051E701234FE700BF02001000002800F002
:101B6800BB8170B582B00446036813F0010F3BD007
:101B7800A74B9B6803F00C03042B2CD0A44B9B6849
:101B880003F00C03082B21D06368B3F5803F4FD0D6
:101B9800B3F5A02F52D09E4B1A6822F480321A60F7
:101BA8001A6822F480221A606368002B50D0FFF76D
:101BB800F7F80546964B1B6813F4003F14D1FFF75E
:101BC800EFF8401B6428F5D903208AE1904B5B6845
:101BD80013F4800FD8D08E4B1B6813F4003F03D04A
:101BE8006368002B00F07A81236813F0020F55D048
:101BF800874B9B6813F00C0F3ED0854B9B6803F016
:101C08000C03082B33D0E368002B68D0814B0122EA
:101C18001A60FFF7C5F805467D4B1B6813F0020FE5
:101C280054D1FFF7BDF8401B0228F5D9032058E12D
:101C3800774A136843F480331360B5E7744B1A6826
:101C480042F480221A601A6842F480321A60ABE7C4
:101C5800FFF7A6F805466E4B1B6813F4003FC3D088
:101C6800FFF79EF8401B6428F5D9032039E1684B3B
:101C78005B6813F4800FC6D1654B1B6813F0020F25
:101C880004D0E368012B01D001202AE1604A1368DF
:101C980023F0F803216943EAC1031360236813F0B2
:101CA800080F40D0636963B35B4B01221A60FFF7EA
:101CB80077F80546564B5B6F13F0020F33D1FFF7E9
:101CC8006FF8401B0228F5D903200AE1504A13682F
:101CD80023F0F803216943EAC1031360DEE74D4BA3
:101CE80000221A60FFF75CF80546494B1B6813F0A1
:101CF800020FD3D0FFF754F8401B0228F5D9032070
:101D0800EFE0454B00221A60FFF74AF80546404BC2
:101D18005B6F13F0020F06D0FFF742F8401B022852
:101D2800F5D90320DDE0236813F0040F79D0384B90
:101D38001B6C13F0805F33D100230193344B1A6C72
:101D480042F080521A641B6C03F080530193019B8C
:101D58000125324B1B6813F4807F23D0A368012B25
:101D680034D0052B38D02A4B1A6F22F001021A679B
:101D78001A6F22F004021A67A368002B36D0FFF707
:101D88000FF80646224B1B6F13F0020F48D1FFF7DE
:101D980007F8801B41F288339842F3D90320A0E06A
:101DA8000025D6E71D4A136843F480731360FEF7D5
:101DB800F7FF0646194B1B6813F4807FCED1FEF758
:101DC800EFFF801B0228F5D903208AE0104A136F21
:101DD80043F001031367CFE70D4B1A6F42F004027B
:101DE8001A671A6F42F001021A67C5E7FEF7D8FFB3
:101DF8000646074B1B6F13F0020F11D0FEF7D0FFFA
:101E0800801B41F288339842F3D9032069E000BF70
:101E18000038024000004742800E474200700040F0
:101E2800E5B9A369002B5BD0304A926802F00C0236
:101E3800082A58D0022B17D02D4B00221A60FEF723
:101E4800AFFF0446294B1B6813F0007F42D0FEF712
:101E5800A7FF001B0228F5D9032042E0234A136C90
:101E680023F080531364DCE7214B00221A60FEF74D
:101E780097FF05461D4B1B6813F0007F06D0FEF741
:101E88008FFF401B0228F5D903202AE0E369226A64
:101E98001343626A43EA8213A26A5208013A43EA88
:101EA8000243E26A43EA0263104A5360104B01227C
:101EB8001A60FEF775FF04460C4B1B6813F0007F91
:101EC80006D1FEF76DFF001B0228F5D9032008E0B4
:101ED800002006E0002004E001207047012000E017
:101EE800002002B070BD0120FBE700BF00380240AF
:101EF80060004742324B9B6803F00C03042B5CD014
:101F0800082B01D02F4870472DE9F04B2C4B5A680D
:101F180002F03F025B6813F4800F2BD0284B5B68FC
:101F2800C3F388131E4600275C010025E41A65EBFD
:101F38000705A90141EA9461A001001B61EB0501B5
:101F4800CB0043EA5073C400A01943EB07014B02CE
:101F580043EAD0534402204619460023FEF756FDB3
:101F6800174B5B68C3F3014301335B00B0FBF3F02D
:101F7800BDE8F08B124B5B68C3F388131E4600273D
:101F88005C010025E41A65EB0705A90141EA9461A3
:101F9800A001001B61EB0501CB0043EA5073C400AC
:101FA800A01943EB07018B0243EA905384022046B1
:101FB80019460023FEF72AFDD2E70348704700BF01
:101FC800003802400024F40000127A00002800F0D3
:101FD8009D8070B504464F4B1B6803F00F038B427E
:101FE80009D2CBB24B4A1370136803F00F038B422C
:101FF80001D0012070BD236813F0020F17D013F031
:10200800040F04D0444A936843F4E0539360236870
:1020180013F0080F04D0404A936843F46043936078
:102028003D4A936823F0F003A068034393600D468C
:10203800236813F0010F32D06368012B21D09A1E58
:10204800012A25D9344A126812F0020F60D03249A9
:102058008A6822F0030213438B60FEF7A1FE06464E
:102068002D4B9B6803F00C036268B3EB820F16D00C
:10207800FEF796FE801B41F288339842F0D9032080
:10208800B8E7254A126812F4003FE0D10120B1E711
:10209800214A126812F0007FD9D10120AAE71D4B0E
:1020A8001B6803F00F03AB4209D9EAB2194B1A7047
:1020B8001B6803F00F03AB4201D001209AE72368A5
:1020C80013F0040F06D0144A936823F4E053E16830
:1020D8000B439360236813F0080F07D00E4A9368E8
:1020E80023F46043216943EAC1039360FFF702FFC9
:1020F800094B9B68C3F30313084AD35CD840084BC9
:1021080018600020FEF702FE002073E701207047E8
:1021180001206FE7003C024000380240686A00086E
:10212800B0000020014B1868704700BFB0000020C5
:1021380008B5FFF7F7FF044B9B68C3F38223034AF4
:10214800D35CD84008BD00BF00380240786A000858
:1021580008B5FFF7E7FF044B9B68C3F34233034A14
:10216800D35CD84008BD00BF00380240786A000838
:10217800F8B505460F4616461C462B689B6837EA95
:1021880003030CBF01230023B34237D0B4F1FF3F50
:10219800F3D0FEF705FE069BC01AA04201D2002C20
:1021A800EBD12A68536823F0E00353606B68B3F5FA
:1021B800827F0BD0AB6AB3F5005F14D0012385F89A
:1021C8005130002385F85030032018E0AB68B3F590
:1021D800004F02D0B3F5806FECD12A68136823F062
:1021E80040031360E6E72A68136823F4005313607A
:1021F8002A68136843F400531360DFE70020F8BD32
:1022080010B582B0044600920B4600228021FFF7E9
:10221800AFFF034610B9184602B010BD636D43F016
:10222800200363650323F6E710B582B004460B4626
:102238004168B1F5827F0AD00092002280212046B1
:10224800FFF796FF034678B9184602B010BD8168BB
:10225800B1F5004F02D0B1F5806FEDD1206801686B
:1022680021F040010160E7E7636D43F020036365F7
:102278000323E9E700283BD010B504460023836216
:1022880090F85130002B2ED0022384F85130226868
:10229800136823F0400313606368A2681343E2687D
:1022A80013432269134362691343A26902F400725B
:1022B8001343E2691343226A1343A16A22680B435A
:1022C8001360638B03F00403616A22680B43536055
:1022D8002268D36923F40063D36100206065012379
:1022E80084F8513010BD80F8503001F03DFECBE746
:1022F800012070472DE9F04182B090F85040012C40
:1023080000F0C3801D46174688460446012380F81E
:102318005030FEF745FD064694F85130DBB2012BEC
:1023280009D00220012384F85130002384F850306A
:1023380002B0BDE8F081B8F1000F00F09880002FDE
:1023480000F09780032384F8513000236365C4F8B4
:102358003080A786E786A363A387E3876364236443
:10236800A368B3F5004F1CD023681A6812F0400F19
:1023780003D11A6842F040021A60E368B3F5006FAF
:1023880015D063680BB1012F49D1226B23681278ED
:102398001A73236B01332363E38E013B9BB2E386FD
:1023A8003DE02268136843F480431360DCE7636808
:1023B8000BB1012F15D1226B23681288DA60236BC9
:1023C80002332363E38E013B9BB2E38609E0FEF709
:1023D800E7FC801BA84202D3B5F1FF3F4BD1002D8B
:1023E8004BD0E38E9BB2002B2CD023689A6812F056
:1023F800020FECD0226B1288DA60236B023323635E
:10240800E38E013B9BB2E386EBE7FEF7C9FC801B3A
:10241800A84202D3B5F1FF3F31D1002D31D0E38E70
:102428009BB27BB123689A6812F0020FEDD0226B41
:1024380012781A73236B01332363E38E013B9BB23B
:10244800E386ECE7324629462046FFF7D9FE08B175
:1024580020236365A36833B901932368DA6801927E
:102468009B680193019B636D6BB900205AE70120BB
:1024780058E7012056E7032054E7032052E70320DA
:1024880050E703204EE701204CE7022050E72DE9F2
:10249800F04383B0DDF8288090F85040012C00F01C
:1024A8000B811D4617460E460446012380F850301E
:1024B800FEF776FC814694F85100C0B263680128A3
:1024C80015D0B3F5827F0AD00223012284F8512067
:1024D800002284F85020184603B0BDE8F083A368B2
:1024E800002B40F0DB80042801D00223EDE7002E0A
:1024F80000F0D680002F00F0D580002D00F0D480A9
:1025080094F85130DBB2042B02D0052384F8513003
:1025180000236365A763E587A5872663E586A58607
:102528002364636423681A6812F0400F03D11A68A1
:1025380042F040021A60E368B3F5006F10D0636898
:102548000BB1012D0AD1226B236812781A73236B01
:1025580001332363E38E013B9BB2E386012569E0E7
:1025680063680BB1012D0AD1226B23681288DA60E7
:10257800236B02332363E38E013B9BB2E386012581
:102588001BE023689A6812F0010F0DD0E28F92B217
:1025980052B1DA68A36B1A80A36B0233A363E38F8B
:1025A800013B9BB2E3870125FEF7FAFBA0EB09008C
:1025B800404502D3B8F1FF3F78D1E38E9BB21BB9F7
:1025C800E38F9BB2002B52D023689A6812F0020F57
:1025D800D7D0E28E92B2002AD3D0002DD1D0226B70
:1025E8001288DA60236B02332363E38E013B9BB2CC
:1025F800E3860025C5E723689A6812F0010F0DD01D
:10260800E28F92B252B1DA68A36B1A70A36B0133EE
:10261800A363E38F013B9BB2E3870125FEF7C0FB71
:10262800A0EB0900404502D3B8F1FF3F40D1B8F113
:10263800000F3FD0E38E9BB213B9E38F9BB2B3B1C7
:1026480023689A6812F0020FD5D0E28E92B2002A5F
:10265800D1D0002DCFD0226B12781A73236B01339F
:102668002363E38E013B9BB2E3860025C3E74A461A
:1026780041462046FFF7C4FD034618B12023636591
:10268800012322E7A268002A7FF41FAF0192226883
:10269800D168019192680192019A16E7022314E722
:1026A800012312E7012310E701230EE703230CE7B8
:1026B80003230AE7032308E702230CE72DE9F04187
:1026C80082B004460F4690461D464368B3F5827FA4
:1026D80019D094F85030012B00F09F80012384F822
:1026E8005030FEF75DFB064694F85130DBB2012B03
:1026F80015D00220012384F85130002384F850308B
:1027080002B0BDE8F0818368002BE2D1042380F891
:102718005130009513460A46FFF7B9FEF0E7002F3F
:102728006DD0B8F1000F6CD0042384F85130002329
:102738006365A763A4F83C80A4F83E802363A3865E
:10274800E38623646364A368B3F5004F0BD0236862
:102758001A6812F0400F03D11A6842F040021A605A
:10276800E36883B12CE02268136823F48043136084
:10277800EDE7FEF715FB801BA84202D3B5F1FF3F3A
:1027880041D1002D41D0E38F9BB2002B2BD0236881
:102798009A6812F0010FECD0A26B1B7B1370A36B2D
:1027A8000133A363E38F013B9BB2E387EBE7FEF7BB
:1027B800F7FA801BA84202D3B5F1FF3F27D145B3F2
:1027C800E38F9BB27BB123689A6812F0010FEED0B9
:1027D800DA68A36B1A80A36B0233A363E38F013B10
:1027E8009BB2E387ECE7324629462046FFF71CFDFB
:1027F80008B120236365636D6BB900207AE7012077
:1028080078E7012076E7032074E7032072E70320C6
:1028180070E703206EE701206CE7022070E70000F4
:1028280070B4036A23F001030362036A426884698F
:1028380024F073040D6845EA040623F002048B684B
:1028480023430D4DA84209D00B4DA8420DD042603C
:1028580086614A684263036270BC704723F00803CC
:10286800CC68234323F00403EEE722F440724C695A
:1028780014438A692243EAE70000014030B4036A3E
:1028880023F480730362036A4268C46924F0730402
:102898000D682C4323F400738D6843EA05230F4D1C
:1028A800A84209D00D4DA8420ED04260C4614A68C2
:1028B800C263036230BC704723F40063CD6843EA07
:1028C800052323F48063EDE722F440524D6942EA80
:1028D80005128D6942EA0512E7E700BF00000140D2
:1028E80030B4036A23F480530362036A4468C269FC
:1028F80022F4E6420D6842EA052223F400538D686B
:1029080043EA0533074DA84206D04460C2614A68CD
:102918000264036230BC704724F480444D6944EA81
:102928008514F2E70000014010B4036A046A24F039
:1029380001040462846924F0F00444EA021223F0DA
:102948000A030B43826103625DF8044B704710B4BD
:10295800036A23F0100303628469036A24F4704451
:1029680044EA023223F0A00343EA011382610362BE
:102978005DF8044B7047836823F07003194341F0F6
:102988000701816070470268D36843F00103D36090
:102998000268936803F00703062B03D0136843F01B
:1029A80001031360002070477047704770477047F5
:1029B800704710B5044603681A6912F0020F11D067
:1029C800DA6812F0020F0DD06FF002021A610123CB
:1029D800037703689B6913F0030F70D0FFF7E6FFD6
:1029E8000023237723681A6912F0040F12D0DA68DB
:1029F80012F0040F0ED06FF004021A61022323773D
:102A080023689B6913F4407F5FD02046FFF7CEFF11
:102A18000023237723681A6912F0080F12D0DA68A6
:102A280012F0080F0ED06FF008021A610423237702
:102A38002368DB6913F0030F4ED02046FFF7B6FF7B
:102A48000023237723681A6912F0100F12D0DA686E
:102A580012F0100F0ED06FF010021A6108232377BE
:102A68002368DB6913F4407F3DD02046FFF79EFFC3
:102A78000023237723681A6912F0010F03D0DA685C
:102A880012F0010F36D123681A6912F0800F03D0B3
:102A9800DA6812F0800F34D123681A6912F0400FF7
:102AA80003D0DA6812F0400F32D123681A6912F0A5
:102AB800200F03D0DA6812F0200F30D110BDFFF7D5
:102AC80074FF2046FFF773FF8AE72046FFF76DFF84
:102AD8002046FFF76CFF9BE72046FFF766FF20467E
:102AE800FFF765FFACE72046FFF75FFF2046FFF7DB
:102AF8005EFFBDE76FF001021A612046FFF754FF41
:102B0800C1E76FF080021A61204600F0FBF9C3E7C5
:102B18006FF040021A612046FFF74AFFC5E76FF0E1
:102B280020021A61204600F0ECF9C7E70368254A3D
:102B380090420ED0B0F1804F0BD0A2F57C4290426B
:102B480007D002F58062904203D002F5806290427D
:102B580003D123F070034A6813431A4A90421AD0EB
:102B6800B0F1804F17D0A2F57C42904213D002F505
:102B7800806290420FD002F5806290420BD002F53D
:102B88009A32904207D002F58062904203D002F553
:102B98008062904203D123F44073CA68134323F040
:102BA80080034A69134303608B68C3620B688362BE
:102BB800044B984202D00123436170470B690363B9
:102BC800F9E700BF00000140A8B110B5044690F82D
:102BD8003D305BB1022384F83D30211D2068FFF7AA
:102BE800A5FF012384F83D30002010BD80F83C305B
:102BF80001F0F2F9EEE701207047A8B110B50446DC
:102C080090F83D305BB1022384F83D30211D2068E7
:102C1800FFF78CFF012384F83D30002010BD80F8B9
:102C28003C3001F0F9F9EEE70120704730B4036A4F
:102C380023F010030362036A4468826922F4E642BF
:102C48000D6842EA052223F020038D6843EA051344
:102C58000E4DA84209D00D4DA8420ED044608261A5
:102C68004A688263036230BC704723F08003CD68F2
:102C780043EA051323F04003EDE724F440644D696B
:102C880044EA85048D6944EA8504E7E700000140C9
:102C980038B590F83C30012B66D00D460446012328
:102CA80080F83C30022380F83D300C2A1AD8DFE83F
:102CB80002F0071919192019191934191919470097
:102CC8000068FFF7ADFD2268936943F0080393613C
:102CD8002268936923F00403936122689369296940
:102CE8000B439361012384F83D30002084F83C00B5
:102CF80038BD0068FFF79AFF2268936943F40063C0
:102D080093612268936923F48063936122689369CD
:102D1800296943EA01239361E4E70068FFF7AEFD00
:102D28002268D36943F00803D3612268D36923F08A
:102D38000403D3612268D36929690B43D361D1E7BE
:102D48000068FFF7CDFD2268D36943F40063D361BF
:102D58002268D36923F48063D3612268D36929691F
:102D680043EA0123D361BDE70220C1E710B48468B8
:102D780024F47F4442EA03230B43234383605DF832
:102D8800044B704790F83C30012B66D010B50446D0
:102D9800012380F83C30022380F83D3002689368B4
:102DA80023F47F4323F0770393600B68402B4AD0CA
:102DB80013D9602B3DD01ED9702B28D0B3F5005FF6
:102DC80030D1CB684A6889680068FFF7CFFF22686E
:102DD800936843F48043936024E0102B06D004D911
:102DE800202B03D0302B01D01CE0DBB9194620681A
:102DF800FFF7C1FD16E0502B14D1CA684968006876
:102E0800FFF792FD50212068FFF7B5FD0AE0CB6877
:102E18004A6889680068FFF7A9FF2268936843F049
:102E280077039360012384F83D30002084F83C0048
:102E380010BDCA6849680068FFF789FD60212068ED
:102E4800FFF799FDEEE7CA6849680068FFF76CFD6F
:102E580040212068FFF78FFDE4E70220704710B497
:102E680001F01F01012303FA01F4036A23EA0403B2
:102E78000362036A8A40134303625DF8044B704798
:102E880010B5044601220068FFF7E9FF23680A4AE3
:102E980093420BD02268936803F00703062B03D0F4
:102EA800136843F001031360002010BD5A6C42F40C
:102EB80000425A64EEE700BF0000014090F83C3041
:102EC800012B1CD070B4012680F83C60022380F8E6
:102ED8003D3002685568936825F070050C682C43EE
:102EE80023F080054B682B4354600268936080F898
:102EF8003D60002380F83C30184670BC70470220C3
:102F080070477047704700002DE9F843044602688F
:102F1800136923F44053C1680B4313618368026942
:102F2800134342691343C2691A430168CB6823F407
:102F3800164323F00C031343CB600268536923F450
:102F4800407381690B435361C369B3F5004F60D087
:102F58000368B84A934200F0148102F580629342F4
:102F680000F00F81FFF7E4F800EB800000EB800031
:102F78006568AD00B0FBF5F5AF4FA7FB05356D09EA
:102F88002E01FFF7D5F800EB800000EB80006568A4
:102F9800AD00B0FBF5F9FFF7CBF800EB800000EBD4
:102FA80080006568AD00B0FBF5F5A7FB05356D0938
:102FB8004FF0640808FB15952D013235A7FB053540
:102FC8006D0905F0F0053544FFF7B2F800EB800015
:102FD80000EB80006668B600B0FBF6F6FFF7A8F8CD
:102FE80000EB800000EB800063689B00B0FBF3F00F
:102FF800A7FB0030400908FB10684FEA081808F1E1
:103008003208A7FB0837C7F3431723682F449F608C
:103018000DE10368874A93425BD002F580629342D0
:1030280057D0FFF785F800EB800000EB800065685B
:103038006D00B0FBF5F5804FA7FB05356D092E0136
:10304800FFF776F800EB800000EB800065686D0004
:10305800B0FBF5F9FFF76CF800EB800000EB80009F
:1030680065686D00B0FBF5F5A7FB05356D094FF0F8
:10307800640808FB1595ED003235A7FB05356D0989
:103088006D0005F4F8753544FFF752F800EB800041
:1030980000EB800066687600B0FBF6F6FFF748F8AC
:1030A80000EB800000EB800063685B00B0FBF3F38B
:1030B800A7FB03235B0908FB13684FEAC80808F15C
:1030C8003208A7FB0837C7F3421723682F449F60CD
:1030D800ADE0FFF73DF800EB800000EB800065688D
:1030E8006D00B0FBF5F5544FA7FB05356D092E01B2
:1030F800FFF72EF800EB800000EB800065686D009C
:10310800B0FBF5F9FFF724F800EB800000EB800036
:1031180065686D00B0FBF5F5A7FB05356D094FF047
:10312800640808FB1595ED003235A7FB05356D09D8
:103138006D0005F4F8753544FFF70AF800EB8000D8
:1031480000EB800066687600B0FBF6F6FFF700F843
:1031580000EB800000EB800063685B00B0FBF3F3DA
:10316800A7FB03235B0908FB13684FEAC80808F1AB
:103178003208A7FB0837C7F3421723682F449F601C
:1031880055E0FEF7E5FF00EB800000EB8000656886
:10319800AD00B0FBF5F5284FA7FB05356D092E01ED
:1031A800FEF7D6FF00EB800000EB80006568AD00FD
:1031B800B0FBF5F9FEF7CCFF00EB800000EB8000D8
:1031C8006568AD00B0FBF5F5A7FB05356D094FF057
:1031D800640808FB15952D013235A7FB05356D09E7
:1031E80005F0F0053544FEF7B3FF00EB800000EB77
:1031F80080006668B600B0FBF6F6FEF7A9FF00EBA4
:10320800800000EB800063689B00B0FBF3F0A7FB35
:103218000030400908FB10684FEA081808F1320826
:10322800A7FB0837C7F3431723682F449F60BDE8FF
:10323800F88300BF001001401F85EB5158B310B54B
:10324800044690F839300BB3242384F839302268C7
:10325800D36823F40053D3602046FFF755FE226855
:10326800136923F4904313612268536923F02A03F6
:1032780053612268D36843F40053D3600020E063AD
:10328800202384F8393084F83A3010BD80F838307B
:1032980000F002FFD8E7012070470000F0B58BB0BE
:1032A8000024059406940794089409940194294BE2
:1032B8001A6B42F004021A631A6B02F004020192BC
:1032C800019A02941A6B42F080021A631A6B02F098
:1032D80080020292029A03941A6B42F001021A6366
:1032E8001A6B02F001020392039A04941A6B42F0DB
:1032F80002021A631B6B03F002030493049B164F2C
:103308002246E0213846FEF78BF8144D224640212C
:103318002846FEF785F84FF400530593104B0693A3
:10332800079405A90F48FDF7A9FFE0230593012697
:1033380006960794089405A93846FDF79FFF402391
:10334800059306960794089405A92846FDF796FF65
:103358000BB0F0BD003802400000024000040240FB
:10336800000021100008024008B50848084B036017
:103378004FF4E133436000238360C36003610C2290
:1033880042618361C361FFF759FF08BD64060020ED
:103398000044004008B50948094B0360094B4360E5
:1033A80000238360C3604FF48042026143618361FC
:1033B800C3610362FEF786F908BD00BF2C05002033
:1033C80000580040801A060008B50D480D4B0360F0
:1033D8004FF48273436000238360C360022202615A
:1033E800012242614FF4007282612022C2610362AD
:1033F800436283620A23C362FEF73CFF08BD00BF35
:1034080084050020003C004030B58BB000240894AF
:1034180009940194029403940494059406940794DF
:10342800124D4FF080432B604FF4BB636B60AC6070
:10343800FE23EB602C61AC612846FFF7DEFB0894A5
:10344800099408A92846FFF739FD602301930294DF
:103458000394059404220DEB02012846FFF718FC9B
:10346800284600F0EFFD0BB030BD00BF2406002059
:1034780030B587B000240294039404940594009412
:1034880001940F4D0F4B2B6040F2E7336B60AC603B
:103498004CF24F33EB602C616C61AC612846FFF74E
:1034A80093FB4FF48053029302A92846FFF76AFC66
:1034B8000094019469462846FFF700FD07B030BD27
:1034C800E00500200000014010B582B040F0400047
:1034D8008DF804008DF80510094C00224021204683
:1034E800FDF79EFF6423022201A90648FEF702FFAA
:1034F800012240212046FDF793FF02B010BD00BF16
:10350800000402408405002070B582B040F0C0007D
:1035180002AC04F8010D0D4D002240212846FDF7AC
:103528007FFF0B4E6423012221463046FEF7E2FE60
:103538006423062207493046FFF7C0F801224021DC
:103548002846FDF76DFF02B070BD00BF00040240C1
:1035580084050020A806002030B583B080238DF8AC
:10356800073000228DF806200E4C40212046FDF73A
:1035780057FF0D4D642301220DF107012846FEF780
:10358800B9FE642301220DF106012846FFF796F8DB
:10359800012240212046FDF743FF9DF8060003B0B5
:1035A80030BD00BF000402408405002008B5012199
:1035B8003120FFF789FF00212D20FFF785FF082123
:1035C8002D20FFF781FF08BD014B1868704700BF29
:1035D8000000060800B587B00F4B5A681A60FDF75F
:1035E80001FD00230093019307230393022305930E
:1035F80001230493694601A8FDF7F6FD20B1FDF704
:1036080009FD07B05DF804FB034B1A680023034962
:103618000220FDF73BFDF2E7D0000020000006087D
:103628002DE9F04F83B0DFF824B1DBF8003002ADAC
:1036380045F8043D0521084600F0B0FA404C012247
:103648002146284600F0FEFADFF804A1DAF8042043
:103658003C4F87FB0231D317C3EB611303F13001F1
:103668008DF804104FF0640909FB1321364E86FBD0
:103678000132CB17C3EBA20303F130028DF805200A
:1036880003EB83035A008A1A30328DF806204FF074
:1036980020088DF807800521212000F07FFA0122FB
:1036A8002146284600F0CEFA05213E2000F076FAA1
:1036B80001222146404600F077FADBF8043002ADDB
:1036C80045F8083D0521452000F068FA0122214609
:1036D800284600F0B7FADAF8002087FB0237D3173C
:1036E800C3EB671303F130018DF8001009FB1321B8
:1036F80086FB0136CB17C3EBA60303F130028DF826
:10370800012003EB83035A008A1A30328DF8022015
:103718008DF803800521612000F040FA012221463E
:10372800284600F08FFA002405E001221021A0B2FB
:1037380000F006FA01347F2CF7DD03B0BDE8F08F06
:10374800180000201F85EB5167666666606A0008EE
:10375800D000002030B595B03022002108A800F034
:103768005DFD002403940494059406940794019441
:103778001A4B1A6C42F080521A641B6C03F0805387
:103788000193019B0294164B1A6842F440421A6056
:103798001B6803F440430293029B012308934FF4F0
:1037A800A023099302250E954FF480030F93042359
:1037B8001093642211921295139308A8FEF7CEF97C
:1037C8000F230393049505944FF4805306930794AD
:1037D800032103A8FEF7FAFB15B030BD00380240FC
:1037E80000700040000000002DE9F0412DED028B33
:1037F800FDF7B0FAFFF7AEFFFFF750FDFFF7B4FD96
:10380800FFF7C8FDFFF7E0FDFFF7FEFDFFF730FE0D
:10381800B548FFF7B8F80421B448FFF731FB4FF477
:103828007A70FDF7C3FA01224021B148FDF7F8FD8F
:10383800FFF792FEE52809D001222021AD48FDF7C7
:10384800EFFD0120BDEC028BBDE8F081FFF7AEFE75
:10385800A84BE0225A6100F067FA012000F062F9F3
:1038680000F03CFAFFF7B0FEA34B1860E2E0B5EEBB
:10387800C08AF1EE10FA1FD4002000F053F99E4AD6
:10388800137A0133DBB213729C4AA2FB03121209AA
:1038980002EB820291005B1A13F0FF0F03D1964AE4
:1038A800536801335360FFF7BBFE954B197858787E
:1038B80000F074F900251DE0914B1B78142BDBD91F
:1038C800023B8F4A1370D7E70134072C11DC04EB55
:1038D800C5038B4A02EB43039B88012BF4D1117873
:1038E800294450782044012289B280B200F028F996
:1038F800EAE70135072D01DC0024E6E7002678E039
:103908007F4B98199E2280F884207B490A7A49685F
:103918000A44711C0B4493F888301A44794BA3FB72
:1039280002135B0803EB4303D31A80F888306EE078
:10393800704BC0225A6105E06E4B80225A6101E04B
:10394800FFF76EFE4FF0804300229A636C4B3344BE
:103958000A2283F888200135092D44DC684B33445A
:1039680093F884402C44143C93F88830013307EBD7
:103978000318002CEFDD01221FFA88F1A0B200F035
:10398800DFF85F4B5B78A342E5DC0833A342E2DD56
:103998005B4B1B784345DEDC08334345DBDD4FF0EA
:1039A80080434FF4BB629A627F229A634FF47A7025
:1039B800FDF7FCF9524A92F88C30013BDBB282F8F1
:1039C8008C30022BB4D0012BB6D00023494A536166
:1039D8004B4A82F88D30484B5A681B689A42AFD9D7
:1039E800FFF7F8FDACE701370B2F01DC0025B3E743
:1039F8000136032E19DC424B334493F88430012BF3
:103A08007FF67EAF3E4A3244023B82F884303C4B1C
:103A1800334493F88430932BEAD8394B334493F8E2
:103A28008830022BE4D80227DEE700F057F932206D
:103A3800FDF7BCF9324B93F88D30012B4CD1322075
:103A4800FFF762FD304B5A78187840EA022000B23E
:103A58002E4A1080DA789D7845EA02252DB22C4A44
:103A680015805A791C7944EA022424B2294B1C8017
:103A7800FCF700FD1AA3D3E90023FCF765FDFCF76A
:103A880075FF254B18602846FCF7F4FC14A3D3E90E
:103A98000023FCF759FDFCF769FF08EE100A1F4BDD
:103AA80018602046FCF7E6FC0DA3D3E90023FCF7D9
:103AB8004BFDFCF75BFF1A4B1860B5EEC08AF1EEC0
:103AC80010FA7FF7D4AE0E4B1B78342B3FF6CFAEEF
:103AD80002330B4A1370CFE60020B3E6AFF3008041
:103AE800DE718A8EE4F27F3FE00500202406002084
:103AF8000004024000000240D0000020CDCCCCCC15
:103B080020000020ABAAAAAAA806002028050020A9
:103B180020060020DC050020B0060020A4060020B6
:103B28008005002008B530B1FF214FF484620348B6
:103B380000F074FB08BD0021F7E700BFE400002097
:103B4800832818D83F2916D8134B1B7913B1B2FA1A
:103B580082F25209012A0FD0CB0803EB43139A00D3
:103B6800024401F0070101238B400B481044017AFD
:103B780021EA030101727047CB0803EB43139A0053
:103B8800024401F0070101238B4003481044017AE5
:103B980019430172704700BFDC000020014B1880F8
:103BA80059807047DC0000202DE9F843244B1B881E
:103BB8000C782344832B3EDC214B5B884C782344D0
:103BC8003F2B3BDC90460D468146002620E01C4BEF
:103BD8001888598831442044B8FA88F2520989B2C1
:103BE80080B2FFF7ADFF01342B78A3420FD907FA53
:103BF80004F313F4004FEAD0114B18885988314464
:103C08002044424689B280B2FFF79AFFEBE70136BB
:103C18006A78B24208D96968A9F1200302FB0363F4
:103C280031F813700024DFE72B78054A11880B441C
:103C38001380484600E00020BDE8F8830020FBE739
:103C4800DC00002070B504460E46154623784BB1BB
:103C58002A4631461846FFF7A7FF2378984201D134
:103C68000134F3E7184670BDF0B583B002AF03F135
:103C78000804E4086D46A5EBC404A54602AE354623
:103C88008DF80810012105E0541814F8014C6C5403
:103C98000131C9B28CB29C42F6D90A22009232464E
:103CA80001460348FDF7DEFD0437BD46F0BD00BF01
:103CB8002C05002000B585B08DF80C108DF80D206E
:103CC8000A230093022303AA01460348FDF7CAFD0D
:103CD80005B05DF804FB00BF2C05002010B50024DA
:103CE8001CE0A4F15002D2B200217820FFF7E2FFD5
:103CF800002211467820FFF7DDFF102200217820EE
:103D0800FFF7D8FF04EB44139A00842305490A44BB
:103D180040217820FFF7A8FF0134E4B2072CE0D94E
:103D280010BD00BFE400002008B544F6206301225E
:103D380078215348FDF750FE002840F09E8040F659
:103D4800C41300E0013B002BFCD1AE2200217820F7
:103D5800FFF7B0FF202200217820FFF7ABFF1022E9
:103D680000217820FFF7A6FFB02200217820FFF776
:103D7800A1FFC82200217820FFF79CFF00221146EE
:103D88007820FFF797FF102200217820FFF792FF95
:103D9800402200217820FFF78DFF81220021782022
:103DA800FFF788FFFF2200217820FFF783FFA12279
:103DB80000217820FFF77EFFA62200217820FFF758
:103DC80079FFA82200217820FFF774FF3F22002105
:103DD8007820FFF76FFFA42200217820FFF76AFF01
:103DE800D32200217820FFF765FF002211467820B2
:103DF800FFF760FFD52200217820FFF75BFFF02254
:103E080000217820FFF756FFD92200217820FFF7FC
:103E180051FF222200217820FFF74CFFDA220021EF
:103E28007820FFF747FF122200217820FFF742FF92
:103E3800DB2200217820FFF73DFF20220021782097
:103E4800FFF738FF8D2200217820FFF733FF142277
:103E580000217820FFF72EFFAF2200217820FFF7FE
:103E680029FF0020FFF75EFEFFF738FF054B002211
:103E78001A805A800120587108BD0020FCE700BF55
:103E88002C050020DC00002000B583B00021009143
:103E98000C4B5A6C42F480425A645A6C02F48042C9
:103EA8000092009A01911A6C42F080521A641B6CBD
:103EB80003F080530193019B0720FCF78BFF03B0AD
:103EC8005DF804FB003802402DE9F04389B0002377
:103ED8000393049305930693079302681F4B9A4232
:103EE80002D009B0BDE8F083002501951C4C236B76
:103EF80043F002032363236B03F002030193019B46
:103F08004FF4806303934FF01209CDF810904FF0EF
:103F18000108CDF814800327069704230793114E50
:103F280003A93046FDF7AAF94FF400730393CDF8BF
:103F38001090CDF8148006970923079303A93046FB
:103F4800FDF79CF90295236C43F480032364236CEA
:103F580003F480030293029BC3E700BF00580040AC
:103F6800003802400004024000B589B000230393E2
:103F780004930593069307930268154B9A4202D05F
:103F880009B05DF804FB0021019103F5FE331A6CBA
:103F980042F400421A641A6C02F400420192019A37
:103FA80002911A6B42F002021A631B6B03F00203C0
:103FB8000293029B3823039302230493032306935B
:103FC8000623079303A90348FDF758F9D8E700BF6C
:103FD800003C00400004024002680E4B9A4200D0A8
:103FE800704700B583B00021019103F59C335A6CEA
:103FF80042F001025A645B6C03F001030193019BD8
:104008000A461920FCF7F8FE1920FCF729FF03B02F
:104018005DF804FB000001400368B3F1804F00D055
:10402800704782B000230193054B1A6C42F00102DD
:104038001A641B6C03F001030193019B02B07047E3
:104048000038024000B587B0002301930293039320
:10405800049305930368B3F1804F02D007B05DF86D
:1040680004FB002300930A4B1A6B42F001021A6307
:104078001B6B03F001030093009B0223019302933F
:104088000123059301A90348FDF7F8F8E6E700BF07
:10409800003802400000024000B589B000230393B5
:1040A80004930593069307930268164B9A4202D02D
:1040B80009B05DF804FB0021019103F5FA331A6C8D
:1040C80042F400321A641A6C02F400320192019A26
:1040D80002911A6B42F001021A631B6B03F0010391
:1040E8000293029B0C230393022304930123059359
:1040F800032306930723079303A90348FDF7BEF894
:10410800D6E700BF00440040000002407047FEE7C9
:10411800FEE7FEE7FEE770477047704708B5FCF713
:1041280033FE08BD08B50248FEF743FC08BD00BFD2
:10413800E00500200F49D1F8883043F47003C1F836
:1041480088300D4B1A6842F001021A60002098600E
:104158001A6822F0847222F480321A60074A5A6080
:104168001A6822F480221A60D8604FF000638B60CE
:10417800704700BF00ED00E0003802401030002416
:10418800DFF834D0002103E00C4B5B584350043176
:104198000B480C4B42189A42F6D30B4A02E0002314
:1041A80042F8043B094B9A42F9D3FFF7C3FF00F0EA
:1041B80011F8FFF719FB704700000220906A000809
:1041C80000000020B4000020B4000020B406002045
:1041D800FEE7000070B50D4E0D4CA41BA410002581
:1041E800A54209D10B4E0C4C00F020F8A41BA410DA
:1041F8000025A54205D170BD56F8253098470135F0
:10420800EEE756F8253098470135F2E7886A000846
:10421800886A0008886A00088C6A00080244034615
:10422800934200D1704703F8011BF9E7F8B500BFC6
:10423800F8BC08BC9E467047F8B500BFF8BC08BC7F
:044248009E467047D7
:10424C000000000000000000000000000000000062
:10425C000000000000000000000000000000000052
:10426C000000000000000000000000000000000042
:10427C0000000000E003E003E003E003E003E003E0
:10428C00E003E003C003C003C001C001C001C001D2
:10429C00C001000000000000E003E003E0030000A8
:1042AC0000000000000000003C1E3C1E3C1E3C1E9A
:1042BC003C1E3C1E3C1E00000000000000000000E4
:1042CC0000000000000000000000000000000000E2
:1042DC00000000000000000000000000CE01CE0332
:1042EC00DE039E039C039C07FF3FFF7F3807380FBC
:1042FC00780F780F780EFFFFFFFFF01EF01CE01C0C
:10430C00E03CE03DE039000000000000000000004F
:10431C00FC03FE0FEE1FE01EE01EE01EE01EE01F81
:10432C00E00FE007F003FC01FE01FE01FE01FE01BF
:10433C00FE01FE01FE3DFC3FF00FE001E00100003C
:10434C0000000000033E07F78FE78EE79EE3BCE317
:10435C00B8E7F8E7F0F7E03FC001FF03FF07F3070A
:10436C00F30FF31EF33CF338F3787FF03FE00000DB
:10437C000000000000000000E007F80F780F781F25
:10438C00781F781F780FF00FE00F801FC37FC3FBDF
:10439C00E7F3F7F1F7F0FFF07FF03EF87F7CFF3F9B
:1043AC00EF1F00000000000000000000E003E0032D
:1043BC00E003E003E003C003C001000000000000C4
:1043CC0000000000000000000000000000000000E1
:1043DC0000000000000000000000000000000000D1
:1043EC003F007C00F001E001C003C007800780079C
:1043FC00800F000F000F000F000F000F000F800F39
:10440C0080078007C007C003E001F0017C003F007B
:10441C000F000000007E001FC007C003E001F00188
:10442C00F000F000F8007800780078007800780050
:10443C007800F800F000F000F001E001C003C007C4
:10444C00001F007E00780000E003C003C001CE39DD
:10445C00FF3F7F3F20037003F807780F3C1F38069F
:10446C000000000000000000000000000000000040
:10447C000000000000000000000000000000000030
:10448C000000000000000000C001C001C001C0011C
:10449C00C001C001C001FFFFFFFFC001C001C0018E
:1044AC00C001C001C00100000000000000000000BD
:1044BC0000000000000000000000000000000000F0
:1044CC0000000000000000000000000000000000E0
:1044DC000000E003E003E003E003E001E001E001A1
:1044EC00C00180030000000000000000000000007C
:1044FC0000000000000000000000FE3FFE3F000036
:10450C00000000000000000000000000000000009F
:10451C00000000000000000000000000000000008F
:10452C00000000000000000000000000000000007F
:10453C0000000000000000000000E003E003E003C6
:10454C00E003000000000000000000000F000F005E
:10455C001E001E003C003C0078007800F000F000CB
:10456C00E001E001C003C00380078007000F000FCB
:10457C00001E001E003C003C0078007800F000009B
:10458C00F007F80F7C1F3E3E1E3C1F7C1F7C0F78F3
:10459C000F780F780F780F780F780F781F7C1F7CAF
:1045AC001E3C3E3E7C1FF80FF00700000000000090
:1045BC0000000000F000F007F03FF03FF001F001C8
:1045CC00F001F001F001F001F001F001F001F00157
:1045DC00F001F001F001F001F001FF3FFF3F00009E
:1045EC000000000000000000E00FF83F7C3C3C00A5
:1045FC003E003E003E003C003C007C00F800F00118
:10460C00E003C0078007000F001E003E003CFE3F89
:10461C00FE3F00000000000000000000F00FF81F3B
:10462C007C1C3E003E003E003C003C00F800F00FBD
:10463C00F80F7C003E001E001E001E001E003E00F7
:10464C007C1CF81FE01F00000000000000000000B0
:10465C007800F800F800F801F803F807F807780F6D
:10466C00781E781E783C78787878FFFFFFFF78000A
:10467C0078007800780078007800000000000000D6
:10468C0000000000FC1FFC1FFC1F001E001E001E73
:10469C00001E001EE01FF81FFC007C003E003E00C8
:1046AC001E003E003E003C007C1CF81FE01F00007A
:1046BC000000000000000000FC01FE078E0F001F30
:1046CC00001E003E003C003CF83DFC3F3E7F1F7E40
:1046DC000F3C0F3C0F3C0F3C0F3E1F1E3E1FFC0FB0
:1046EC00F00300000000000000000000FF3FFF3F4F
:1046FC00FF3F0F001E001E003C0038007800F00049
:10470C00F000E001E001C003C0038007800F800FC0
:10471C00000F001F001F0000000000000000000040
:10472C00F807FC0F3E1F1E1E1E3E1E3E1E1E3C1F8B
:10473C00F80FF007F80FFC1E3E3E1F3C1F7C0F7C51
:10474C000F7C1F3C3E3FFC1FF007000000000000E8
:10475C0000000000F007F80F7C1E3E3C1E3C1F7C46
:10476C001F7C1F7C1F7C1F3C3F3EFF1FEF071F0061
:10477C001E001E003E003C00F838F03FE01F000019
:10478C00000000000000000000000000000000001D
:10479C0000000000E003E003E003E0030000000081
:1047AC0000000000000000000000E003E003E00354
:1047BC00E00300000000000000000000000000000A
:1047CC000000000000000000E003E003E003E00351
:1047DC000000000000000000000000000000E003EA
:1047EC00E003E003E003E001E001E001C00380032B
:1047FC0000000000000000000000000003000F009B
:10480C003F00FC00F003C00F003F00FE003FC00F54
:10481C00F003FC003F000F0003000000000000004C
:10482C00000000000000000000000000000000007C
:10483C000000000000000000FFFFFFFF0000000070
:10484C000000FFFFFFFF0000000000000000000060
:10485C00000000000000000000000000000000004C
:10486C000000000000E000F8007E801FE007F80167
:10487C007E001F007E00F801E007801F007E00F81C
:10488C0000E000000000000000000000F01FFC3FF2
:10489C003E381F381F381E001E003C007800F00008
:1048AC00E001C003C003C007C00700000000000007
:1048BC00C007C007C0070000000000000000000097
:1048CC00F803FE0F1E1F0F3E7F3CFF78EF79C77376
:1048DC00C7F38FF38FF38FF39FF39FF3FF73FF7B7C
:1048EC00F779003C1C1FFC0FF803000000000000CF
:1048FC0000000000000000000000E003E003F007EF
:10490C00F007F007780F780F7C0E3C1E3C1E3E3CE7
:10491C00FE3FFF3F1F780F780FF007F007F0000005
:10492C000000000000000000000000000000F83F44
:10493C00FC3F3E3C1E3C1E3C1E3C3E3C7C3CF03F47
:10494C00F83F7E3C1F3C1F3C0F3C0F3C1F3CFE3F86
:10495C00F83F000000000000000000000000000014
:10496C000000FF01FF07871F003E003C007C007821
:10497C000078007800780078007C007C003E003FD6
:10498C00831FFF07FF010000000000000000000073
:10499C00000000000000F07FFC7F7E781F781F78FD
:1049AC000F780F780F780F780F780F780F780F78C3
:1049BC001F781E787E78F87FE07F000000000000F2
:1049CC0000000000000000000000FF3FFF3F003E21
:1049DC00003E003E003E003E003EFE3FFE3F003EDD
:1049EC00003E003E003E003E003EFF3FFF3F000009
:1049FC000000000000000000000000000000FF1F8D
:104A0C00FF1F001E001E001E001E001E001EFF1FAA
:104A1C00FF1F001E001E001E001E001E001E001E9A
:104A2C00001E00000000000000000000000000005C
:104A3C000000FE03FF0F871F003E007C007C007807
:104A4C0000F800F87FF87FF80F780F7C0F7C0F3E92
:104A5C008F1FFF0FFE03000000000000000000008D
:104A6C000000000000001F7C1F7C1F7C1F7C1F7C33
:104A7C001F7C1F7C1F7CFF7FFF7F1F7C1F7C1F7C8C
:104A8C001F7C1F7C1F7C1F7C1F7C00000000000013
:104A9C0000000000000000000000FF3FFF3FE003AB
:104AAC00E003E003E003E003E003E003E003E003E2
:104ABC00E003E003E003E003E003FF3FFF3F0000FF
:104ACC000000000000000000000000000000FC1FBF
:104ADC00FC1F7C007C007C007C007C007C007C004B
:104AEC007C007C007C007C0078007800F838F03F7B
:104AFC00C03F0000000000000000000000000000AB
:104B0C0000001F3C1E3C3C3C783CF03CE03DE03F50
:104B1C00C03F803FC03FE03FF03DF03C783C7C3CE8
:104B2C003E3C1F3C0F3C0000000000000000000059
:104B3C00000000000000003E003E003E003E003E33
:104B4C00003E003E003E003E003E003E003E003E69
:104B5C00003E003E003EFF3FFF3F00000000000013
:104B6C00000000000000000000001FF81FFC1FFCEC
:104B7C003FFE3FFE3FFE7FFF77FF77FFF7F7E7F73C
:104B8C00E7F3E7F3C7F307F007F007F007F00000CF
:104B9C0000000000000000000000000000000F7C7E
:104BAC000F7C0F7E0F7F0F7F8F7F8F7FCF7FEF7BF1
:104BBC00EF79FF79FF78FF787F783F783F781F781F
:104BCC001F78000000000000000000000000000042
:104BDC000000F007FC1F3E3E1F7C0F780F780FF88B
:104BEC000FF80FF80FF80FF80FF80F780F781F7CED
:104BFC003E3EFC1FF007000000000000000000001B
:104C0C00000000000000FC3FFF3F1F3E0F3E0F3E28
:104C1C000F3E0F3E1F3E3F3EFC3FF03F003E003E2E
:104C2C00003E003E003E003E003E00000000000042
:104C3C0000000000000000000000F007FC1F3E3EDA
:104C4C001F7C0F780F780FF80FF80FF80FF80FF88C
:104C5C000FF80F780F781F7C3E3EFC1FF8077C0086
:104C6C003F000F0003000000000000000000F03FB8
:104C7C00FC3F7E3C3E3C1E3C1E3C3E3C3C3CFC3CDB
:104C8C00F03FE03FF03DF83C7C3C3E3C1E3C1F3C82
:104C9C000F3C0000000000000000000000000000BD
:104CAC000000FC07FE1F0E3E003C003C003C003E9A
:104CBC00C01FF80FFE037F001F000F000F001F2006
:104CCC003E3CFC3FF01F0000000000000000000014
:104CDC00000000000000FFFFFFFFE003E003E00323
:104CEC00E003E003E003E003E003E003E003E003A0
:104CFC00E003E003E003E003E00300000000000039
:104D0C00000000000000000000000F7C0F7C0F7CF6
:104D1C000F7C0F7C0F7C0F7C0F7C0F7C0F7C0F7C2F
:104D2C000F7C0F7C1E3C1E3C3E3EFC1FF00700001F
:104D3C00000000000000000000000000000007F070
:104D4C0007F007F80F780F7C1E3C1E3C1E3E3C1EE5
:104D5C003C1F781F780FF80FF007F007F007E003FF
:104D6C00E003000000000000000000000000000054
:104D7C00000003E003F003F007F0E7F3E7F3E7F3D9
:104D8C00E773F77BF77FFF7F7F7F7F7F7E7F7E3FA1
:104D9C003E3E3E3E3E3E0000000000000000000093
:104DAC0000000000000007F80F7C1E3E3E3E3C1F3A
:104DBC00F80FF007E007E003E003F007F80F7C0FB3
:104DCC007C1E3E3C1F780F780FF0000000000000A6
:104DDC000000000000000000000007F807780F7CBE
:104DEC001E3C1E3E3C1F780FF80FF007E003E0035B
:104DFC00E003E003E003E003E003E003E003000072
:104E0C000000000000000000000000000000FF7F18
:104E1C00FF7F0F001F003E007C00F800F000E00157
:104E2C00E003C007800F000F001E003E007CFF7FD8
:104E3C00FF7F00000000000000000000FF0780075B
:104E4C00800780078007800780078007800780071E
:104E5C00800780078007800780078007800780070E
:104E6C0080078007800780078007FF07FF07000087
:104E7C0000780078003C003C001E001E000F000F64
:104E8C0080078007C003C003E001E001F000F000E0
:104E9C00780078003C003C001E001E000F000F0044
:104EAC0007000000F07FF000F000F000F000F000D0
:104EBC00F000F000F000F000F000F000F000F00066
:104ECC00F000F000F000F000F000F000F000F00056
:104EDC00F000F07FF07F0000C000C001C001E003D3
:104EEC00E003F007F0077807780F380F3C1E3C1EE4
:104EFC001E3C1E3C0F380F780778000000000000A5
:104F0C000000000000000000000000000000000095
:104F1C000000000000000000000000000000000085
:104F2C000000000000000000000000000000000075
:104F3C00000000000000FFFFFFFF00000000000069
:104F4C00F000000000000000000000000000000065
:104F5C000000000000000000000000000000000045
:104F6C000000000000000000000000000000000035
:104F7C000000000000000000000000000000000025
:104F8C00F80FFC3F7C3C3E003E003E00FE07FE1F3F
:104F9C003E3E3E7C3E783E7C7E7CFF3FCF1F000039
:104FAC000000000000000000003C003C003C003C05
:104FBC00003C003CF83DFE3F3E3F1F3E0F3C0F3C8B
:104FCC000F3C0F3C0F3C0F3C1F3C1E3C3E3FFC3F3C
:104FDC00F03B00000000000000000000000000009A
:104FEC000000000000000000FE03FF0F871F003EC2
:104FFC00003E003C007C007C007C003C003E003EFF
:10500C00871FFF0FFE0300000000000000000000DF
:10501C001F001F001F001F001F001F00FF07FF1FA6
:10502C003F3E1F3C1F7C1F7C1F7C1F781F781F7C02
:10503C001F7C3F3C7F3EFF1FDF0F00000000000085
:10504C000000000000000000000000000000000054
:10505C00F803FC0F3E1F1E3E1F3C1F7CFF7FFF7F93
:10506C00007C007C003C003E071FFF0FFE0300008D
:10507C000000000000000000FF01E103C003C007B6
:10508C00C007C007FF7FFF7FC007C007C007C0076E
:10509C00C007C007C007C007C007C007C007C007CC
:1050AC00C00700000000000000000000000000002D
:1050BC000000000000000000EF07FF1F7F3E1F3CB8
:1050CC001F7C1F7C1F781F781F781F7C1F7C3F3C28
:1050DC007F3EFF1FDF0F1E001E001E007C38F83FB6
:1050EC00003C003C003C003C003C003CFC3DFE3FD6
:1050FC009E3F1F3F1F3E1F3C1F3C1F3C1F3C1F3C45
:10510C001F3C1F3C1F3C1F3C1F3C000000000000CC
:10511C0000000000F001F0010000000000000000A1
:10512C00E07FE07FE001E001E001E001E001E0016F
:10513C00E001E001E001E001E001E001E00100003C
:10514C000000000000000000F800F8000000000063
:10515C0000000000F83FF83FF800F800F800F800F5
:10516C00F800F800F800F800F800F800F800F80073
:10517C00F800F800F800F000F071E07F003C003C13
:10518C00003C003C003C003C1F3C3E3C7C3CF83C62
:10519C00F03DE03DC03FC03FE03FF03DF83C7C3C83
:1051AC003E3C1F3C1F3C00000000000000000000C3
:1051BC00F07FF001F001F001F001F001F001F001DD
:1051CC00F001F001F001F001F001F001F001F0014B
:1051DC00F001F001F001F001F0010000000000000E
:1051EC0000000000000000000000000000000000B3
:1051FC009EF7FFFFFFFFFFFFE7FBE7F9C7F1C7F1E2
:10520C00C7F1C7F1C7F1C7F1C7F1C7F1C7F100008A
:10521C000000000000000000000000000000000082
:10522C0000000000FC3DFE3F9E3F1F3F1F3E1F3C09
:10523C001F3C1F3C1F3C1F3C1F3C1F3C1F3C1F3C8A
:10524C001F3C0000000000000000000000000000F7
:10525C000000000000000000F007FC1F3E3E1F3C59
:10526C001F7C0F780F780F780F780F781F7C1F3CFE
:10527C003E3EFC1FF0070000000000000000000094
:10528C00000000000000000000000000F83DFE3FA0
:10529C003E3F1F3E0F3C0F3C0F3C0F3C0F3C0F3C66
:1052AC001F3C1E3E3E3FFC3FF83F003C003C003C98
:1052BC00003C003C0000000000000000000000006A
:1052CC00EE07FE1F7E3E1E3C1E7C1E781E781E784E
:1052DC001E781E781E7C3E7C7E3EFE1FDE0F1E005E
:1052EC001E001E001E001E0000000000000000003A
:1052FC00000000007F1FFF1FE71FC71F871F001F35
:10530C00001F001F001F001F001F001F001F001F99
:10531C00001F000000000000000000000000000062
:10532C000000000000000000FC07FE1F0E1E003EE7
:10533C00003E003FE01FFC07FE003E001E001E006A
:10534C003E3CFC3FF01F000000000000000000008D
:10535C00000000000000800780078007FF7FFF7FB0
:10536C0080078007800780078007800780078007F9
:10537C0080078007C007FF03FF010000000000004A
:10538C000000000000000000000000000000000011
:10539C001E3C1E3C1E3C1E3C1E3C1E3C1E3C1E3C31
:1053AC001E3C1E3C3E3C7E3CFE3EFE1FDE0F0000C3
:1053BC0000000000000000000000000000000000E1
:1053CC000000000007F00F780F781E3C1E3C1E3EBC
:1053DC003C1E3C1E780F780FF00FF007F007E0032F
:1053EC00E0030000000000000000000000000000CE
:1053FC00000000000000000003F0E3F1E3F3E7F32A
:10540C00F7F3F7F3F77F777F7F7F7F7F7F7F3E3EDA
:10541C003E3E3E3E3E3E000000000000000000000C
:10542C000000000000000000000000000F7C1E3E89
:10543C003C3E3C1FF80FF007F007E003F007F807BD
:10544C00F80F7C1E3E3E1F3C1F7800000000000041
:10545C000000000000000000000000000000000040
:10546C0007F80F780F7C1E3C1E3C3C1E3C1E3C1F5C
:10547C00780FF80FF007F007E003E003C003C00358
:10548C00C0038007800F007F0000000000000000B8
:10549C0000000000FF3FFF3F1F003E007C00F800B3
:1054AC00F001E003C007800F001F001E003CFF7FCF
:1054BC00FF7F00000000000000000000FE01E00380
:1054CC00C003C003C003C003E001E001E001C00160
:1054DC00C003803F803FC003C001E001E001E00158
:1054EC00C003C003C003C003E003FE017E00000044
:1054FC00C001C001C001C001C001C001C001C00198
:10550C00C001C001C001C001C001C001C001C00187
:10551C00C001C001C001C001C001C001C001C00177
:10552C00C0010000C03FE003E001E001E001E00148
:10553C00C001C003C003C001E001FE00FE00E00199
:10554C00C001C003C003C001E001E001E001E001C3
:10555C00E003C03F003F000000000000000000001E
:10556C000000000000000000000000000000073FE9
:10557C00C77FE773FFF17EF0000000000000000021
:10558C00000000000000000000000000000000000F
:10559C0000000000000000000000000000000000FF
:1055AC0000000000000000000000000000000000EF
:1055BC000000000C000C000C000C000C000C000C8B
:1055CC00000C000C000C000C0000000C000C000087
:1055DC00000000000000001B001B001B001B001B38
:1055EC0000000000000000000000000000000000AF
:1055FC0000000000000000000000801980198019D4
:10560C008019C07FC07F80190033C07FC07F0033FA
:10561C000033003300330000000000000000001EC7
:10562C00003F807580650074003C001E00078005FB
:10563C00806580658075003F001E0004000400003A
:10564C000000007000D840D8C0D880D90073000684
:10565C00000C801BC036C066C046C006800300002C
:10566C00000000000000001E003F00330033003338
:10567C00001E000CC03CC066806380618063C03E2D
:10568C00801C0000000000000000000C000C000C4E
:10569C00000C000C000000000000000000000000E6
:1056AC00000000000000000000000000800000016D
:1056BC000003000600060004000C000C000C000C9B
:1056CC00000C000C00040006000600030001800022
:1056DC00002000100018000C000C0004000600064E
:1056EC0000060006000600060004000C000C001862
:1056FC00001000200000000C002D003F001E0033A5
:10570C00000000000000000000000000000000008D
:10571C000000000000000000000000000000000C71
:10572C00000C000C000CC0FFC0FF000C000C000CA7
:10573C00000C000000000000000000000000000051
:10574C00000000000000000000000000000000004D
:10575C00000000000000000C000C00040004000815
:10576C00000000000000000000000000000000002D
:10577C000000001E001E00000000000000000000E1
:10578C00000000000000000000000000000000000D
:10579C000000000000000000000000000000000CF1
:1057AC00000C0000000000000000000300030003D8
:1057BC000006000600060006000C000C000C000C95
:1057CC000018001800180000000000000000001E67
:1057DC00003F0033806180618061806D806D8061ED
:1057EC00806180610033003F001E0000000000005B
:1057FC0000000006000E001E003600260006000603
:10580C000006000600060006000600060006000062
:10581C00000000000000001E003F8073806180616A
:10582C00800100030006000C001800300060807F2F
:10583C00807F0000000000000000001C003E0063A0
:10584C0000630003000E000E0003800180018061E4
:10585C008073003F001E00000000000000000006E6
:10586C00000E000E001E001E0016003600360066EC
:10587C00807F807F0006000600060000000000000C
:10588C000000007F007F006000600060006E007F01
:10589C0080638001800180618073003F001E0000E6
:1058AC00000000000000001E003F8033806100609B
:1058BC00006E007F80738061806180618033003F67
:1058CC00001E0000000000000000807F807F80012F
:1058DC000003000300060006000C000C000C00087E
:1058EC000018001800180000000000000000001E46
:1058FC00003F8063806180610021001E003F806159
:10590C00806180618061003F001E0000000000008B
:10591C000000001E003F0073806180618061807315
:10592C00803F801D800180610073003F001E0000DD
:10593C000000000000000000000000000000000C4F
:10594C00000C000000000000000000000000000C33
:10595C00000C00000000000000000000000000002F
:10596C0000000000000C000C000000000000000013
:10597C000000000C000C00040004000800000000F3
:10598C000000000080008003000E0038006000382A
:10599C00000E8003800000000000000000000000EA
:1059AC0000000000000000000000807F807F0000ED
:1059BC000000807F807F00000000000000000000DD
:1059CC00000000000000000000000000004000701B
:1059DC00001C000780010007001C00700040000044
:1059EC0000000000000000000000001F803FC0719C
:1059FC00C060C000C00180030007000E000C000C4A
:105A0C000000000C000C0000000000000000001E54
:105A1C00003F803180718063806F806D806D806FFE
:105A2C00806700600032003E001C00000000000097
:105A3C000000000E000E001B001B001B001B803121
:105A4C008031803F803F8031C060C060C06000000A
:105A5C00000000000000007C007E00630063006317
:105A6C000063007E007E0063806180618063007F44
:105A7C00007E0000000000000000001E003F80318E
:105A8C008061006000600060006000600060806108
:105A9C008031003F001E0000000000000000007C70
:105AAC00007F0063806380618061806180618061C0
:105ABC00806100630063007E007C00000000000039
:105ACC000000807F807F0060006000600060007FCD
